{
  "contractName": "Bileto",
  "abi": [
    {
      "constant": true,
      "inputs": [],
      "name": "owner",
      "outputs": [
        {
          "name": "",
          "type": "address"
        }
      ],
      "payable": false,
      "stateMutability": "view",
      "type": "function"
    },
    {
      "constant": true,
      "inputs": [],
      "name": "isOwner",
      "outputs": [
        {
          "name": "",
          "type": "bool"
        }
      ],
      "payable": false,
      "stateMutability": "view",
      "type": "function"
    },
    {
      "constant": false,
      "inputs": [
        {
          "name": "newOwner",
          "type": "address"
        }
      ],
      "name": "transferOwnership",
      "outputs": [],
      "payable": false,
      "stateMutability": "nonpayable",
      "type": "function"
    },
    {
      "inputs": [
        {
          "name": "_name",
          "type": "string"
        }
      ],
      "payable": false,
      "stateMutability": "nonpayable",
      "type": "constructor"
    },
    {
      "payable": true,
      "stateMutability": "payable",
      "type": "fallback"
    },
    {
      "anonymous": false,
      "inputs": [
        {
          "indexed": true,
          "name": "_by",
          "type": "address"
        }
      ],
      "name": "StoreOpen",
      "type": "event"
    },
    {
      "anonymous": false,
      "inputs": [
        {
          "indexed": true,
          "name": "_by",
          "type": "address"
        }
      ],
      "name": "StoreSuspended",
      "type": "event"
    },
    {
      "anonymous": false,
      "inputs": [
        {
          "indexed": true,
          "name": "_by",
          "type": "address"
        },
        {
          "indexed": false,
          "name": "_settlement",
          "type": "uint256"
        },
        {
          "indexed": false,
          "name": "_excess",
          "type": "uint256"
        }
      ],
      "name": "StoreClosed",
      "type": "event"
    },
    {
      "anonymous": false,
      "inputs": [
        {
          "indexed": true,
          "name": "_id",
          "type": "uint256"
        },
        {
          "indexed": true,
          "name": "_extId",
          "type": "bytes32"
        },
        {
          "indexed": true,
          "name": "_by",
          "type": "address"
        }
      ],
      "name": "EventCreated",
      "type": "event"
    },
    {
      "anonymous": false,
      "inputs": [
        {
          "indexed": true,
          "name": "_id",
          "type": "uint256"
        },
        {
          "indexed": true,
          "name": "_extId",
          "type": "bytes32"
        },
        {
          "indexed": true,
          "name": "_by",
          "type": "address"
        }
      ],
      "name": "EventSalesStarted",
      "type": "event"
    },
    {
      "anonymous": false,
      "inputs": [
        {
          "indexed": true,
          "name": "_id",
          "type": "uint256"
        },
        {
          "indexed": true,
          "name": "_extId",
          "type": "bytes32"
        },
        {
          "indexed": true,
          "name": "_by",
          "type": "address"
        }
      ],
      "name": "EventSalesSuspended",
      "type": "event"
    },
    {
      "anonymous": false,
      "inputs": [
        {
          "indexed": true,
          "name": "_id",
          "type": "uint256"
        },
        {
          "indexed": true,
          "name": "_extId",
          "type": "bytes32"
        },
        {
          "indexed": true,
          "name": "_by",
          "type": "address"
        }
      ],
      "name": "EventSalesFinished",
      "type": "event"
    },
    {
      "anonymous": false,
      "inputs": [
        {
          "indexed": true,
          "name": "_id",
          "type": "uint256"
        },
        {
          "indexed": true,
          "name": "_extId",
          "type": "bytes32"
        },
        {
          "indexed": true,
          "name": "_by",
          "type": "address"
        }
      ],
      "name": "EventCompleted",
      "type": "event"
    },
    {
      "anonymous": false,
      "inputs": [
        {
          "indexed": true,
          "name": "_id",
          "type": "uint256"
        },
        {
          "indexed": true,
          "name": "_extId",
          "type": "bytes32"
        },
        {
          "indexed": true,
          "name": "_by",
          "type": "address"
        },
        {
          "indexed": false,
          "name": "_settlement",
          "type": "uint256"
        }
      ],
      "name": "EventSettled",
      "type": "event"
    },
    {
      "anonymous": false,
      "inputs": [
        {
          "indexed": true,
          "name": "_id",
          "type": "uint256"
        },
        {
          "indexed": true,
          "name": "_extId",
          "type": "bytes32"
        },
        {
          "indexed": true,
          "name": "_by",
          "type": "address"
        }
      ],
      "name": "EventCancelled",
      "type": "event"
    },
    {
      "anonymous": false,
      "inputs": [
        {
          "indexed": true,
          "name": "_id",
          "type": "uint256"
        },
        {
          "indexed": true,
          "name": "_extId",
          "type": "bytes32"
        },
        {
          "indexed": true,
          "name": "_by",
          "type": "address"
        },
        {
          "indexed": false,
          "name": "_eventId",
          "type": "uint256"
        }
      ],
      "name": "PurchaseCompleted",
      "type": "event"
    },
    {
      "anonymous": false,
      "inputs": [
        {
          "indexed": true,
          "name": "_id",
          "type": "uint256"
        },
        {
          "indexed": true,
          "name": "_extId",
          "type": "bytes32"
        },
        {
          "indexed": true,
          "name": "_by",
          "type": "address"
        },
        {
          "indexed": false,
          "name": "_eventId",
          "type": "uint256"
        }
      ],
      "name": "PurchaseCancelled",
      "type": "event"
    },
    {
      "anonymous": false,
      "inputs": [
        {
          "indexed": true,
          "name": "_id",
          "type": "uint256"
        },
        {
          "indexed": true,
          "name": "_extId",
          "type": "bytes32"
        },
        {
          "indexed": true,
          "name": "_by",
          "type": "address"
        },
        {
          "indexed": false,
          "name": "_eventId",
          "type": "uint256"
        }
      ],
      "name": "PurchaseRefunded",
      "type": "event"
    },
    {
      "anonymous": false,
      "inputs": [
        {
          "indexed": true,
          "name": "_eventId",
          "type": "uint256"
        },
        {
          "indexed": true,
          "name": "_purchaseId",
          "type": "uint256"
        },
        {
          "indexed": true,
          "name": "_by",
          "type": "address"
        }
      ],
      "name": "CustomerCheckedIn",
      "type": "event"
    },
    {
      "anonymous": false,
      "inputs": [
        {
          "indexed": true,
          "name": "previousOwner",
          "type": "address"
        },
        {
          "indexed": true,
          "name": "newOwner",
          "type": "address"
        }
      ],
      "name": "OwnershipTransferred",
      "type": "event"
    },
    {
      "constant": false,
      "inputs": [],
      "name": "openStore",
      "outputs": [],
      "payable": false,
      "stateMutability": "nonpayable",
      "type": "function"
    },
    {
      "constant": false,
      "inputs": [],
      "name": "suspendStore",
      "outputs": [],
      "payable": false,
      "stateMutability": "nonpayable",
      "type": "function"
    },
    {
      "constant": false,
      "inputs": [],
      "name": "closeStore",
      "outputs": [],
      "payable": false,
      "stateMutability": "nonpayable",
      "type": "function"
    },
    {
      "constant": false,
      "inputs": [
        {
          "name": "_externalId",
          "type": "string"
        },
        {
          "name": "_organizer",
          "type": "address"
        },
        {
          "name": "_name",
          "type": "string"
        },
        {
          "name": "_storeIncentive",
          "type": "uint256"
        },
        {
          "name": "_ticketPrice",
          "type": "uint256"
        },
        {
          "name": "_ticketsOnSale",
          "type": "uint256"
        }
      ],
      "name": "createEvent",
      "outputs": [
        {
          "name": "eventId",
          "type": "uint256"
        }
      ],
      "payable": false,
      "stateMutability": "nonpayable",
      "type": "function"
    },
    {
      "constant": false,
      "inputs": [
        {
          "name": "_eventId",
          "type": "uint256"
        }
      ],
      "name": "startTicketSales",
      "outputs": [],
      "payable": false,
      "stateMutability": "nonpayable",
      "type": "function"
    },
    {
      "constant": false,
      "inputs": [
        {
          "name": "_eventId",
          "type": "uint256"
        }
      ],
      "name": "suspendTicketSales",
      "outputs": [],
      "payable": false,
      "stateMutability": "nonpayable",
      "type": "function"
    },
    {
      "constant": false,
      "inputs": [
        {
          "name": "_eventId",
          "type": "uint256"
        }
      ],
      "name": "endTicketSales",
      "outputs": [],
      "payable": false,
      "stateMutability": "nonpayable",
      "type": "function"
    },
    {
      "constant": false,
      "inputs": [
        {
          "name": "_eventId",
          "type": "uint256"
        }
      ],
      "name": "completeEvent",
      "outputs": [],
      "payable": false,
      "stateMutability": "nonpayable",
      "type": "function"
    },
    {
      "constant": false,
      "inputs": [
        {
          "name": "_eventId",
          "type": "uint256"
        }
      ],
      "name": "settleEvent",
      "outputs": [],
      "payable": false,
      "stateMutability": "nonpayable",
      "type": "function"
    },
    {
      "constant": false,
      "inputs": [
        {
          "name": "_eventId",
          "type": "uint256"
        }
      ],
      "name": "cancelEvent",
      "outputs": [],
      "payable": false,
      "stateMutability": "nonpayable",
      "type": "function"
    },
    {
      "constant": false,
      "inputs": [
        {
          "name": "_eventId",
          "type": "uint256"
        },
        {
          "name": "_quantity",
          "type": "uint256"
        },
        {
          "name": "_externalId",
          "type": "string"
        },
        {
          "name": "_timestamp",
          "type": "uint256"
        },
        {
          "name": "_customerId",
          "type": "string"
        }
      ],
      "name": "purchaseTickets",
      "outputs": [
        {
          "name": "purchaseId",
          "type": "uint256"
        }
      ],
      "payable": true,
      "stateMutability": "payable",
      "type": "function"
    },
    {
      "constant": false,
      "inputs": [
        {
          "name": "_purchaseId",
          "type": "uint256"
        },
        {
          "name": "_externalId",
          "type": "string"
        },
        {
          "name": "_customerId",
          "type": "string"
        }
      ],
      "name": "cancelPurchase",
      "outputs": [],
      "payable": false,
      "stateMutability": "nonpayable",
      "type": "function"
    },
    {
      "constant": false,
      "inputs": [
        {
          "name": "_eventId",
          "type": "uint256"
        },
        {
          "name": "_purchaseId",
          "type": "uint256"
        }
      ],
      "name": "refundPurchase",
      "outputs": [],
      "payable": false,
      "stateMutability": "nonpayable",
      "type": "function"
    },
    {
      "constant": false,
      "inputs": [
        {
          "name": "_purchaseId",
          "type": "uint256"
        }
      ],
      "name": "checkIn",
      "outputs": [],
      "payable": false,
      "stateMutability": "nonpayable",
      "type": "function"
    },
    {
      "constant": true,
      "inputs": [],
      "name": "fetchStoreInfo",
      "outputs": [
        {
          "name": "storeOwner",
          "type": "address"
        },
        {
          "name": "storeStatus",
          "type": "uint256"
        },
        {
          "name": "storeName",
          "type": "string"
        },
        {
          "name": "storeSettledBalance",
          "type": "uint256"
        },
        {
          "name": "storeExcessBalance",
          "type": "uint256"
        },
        {
          "name": "storeRefundableBalance",
          "type": "uint256"
        },
        {
          "name": "storeCounterEvents",
          "type": "uint256"
        },
        {
          "name": "storeCounterPurchases",
          "type": "uint256"
        }
      ],
      "payable": false,
      "stateMutability": "view",
      "type": "function"
    },
    {
      "constant": true,
      "inputs": [
        {
          "name": "_eventId",
          "type": "uint256"
        }
      ],
      "name": "fetchEventInfo",
      "outputs": [
        {
          "name": "eventStatus",
          "type": "uint256"
        },
        {
          "name": "eventExternalId",
          "type": "bytes32"
        },
        {
          "name": "eventOrganizer",
          "type": "address"
        },
        {
          "name": "eventName",
          "type": "string"
        },
        {
          "name": "eventStoreIncentive",
          "type": "uint256"
        },
        {
          "name": "eventTicketPrice",
          "type": "uint256"
        },
        {
          "name": "eventTicketsOnSale",
          "type": "uint256"
        }
      ],
      "payable": false,
      "stateMutability": "view",
      "type": "function"
    },
    {
      "constant": true,
      "inputs": [
        {
          "name": "_eventId",
          "type": "uint256"
        }
      ],
      "name": "fetchEventSalesInfo",
      "outputs": [
        {
          "name": "eventStatus",
          "type": "uint256"
        },
        {
          "name": "eventTicketsSold",
          "type": "uint256"
        },
        {
          "name": "eventTicketsLeft",
          "type": "uint256"
        },
        {
          "name": "eventTicketsCancelled",
          "type": "uint256"
        },
        {
          "name": "eventTicketsRefunded",
          "type": "uint256"
        },
        {
          "name": "eventTicketsCheckedIn",
          "type": "uint256"
        },
        {
          "name": "eventBalance",
          "type": "uint256"
        },
        {
          "name": "eventRefundableBalance",
          "type": "uint256"
        }
      ],
      "payable": false,
      "stateMutability": "view",
      "type": "function"
    },
    {
      "constant": true,
      "inputs": [
        {
          "name": "_purchaseId",
          "type": "uint256"
        }
      ],
      "name": "fetchPurchaseInfo",
      "outputs": [
        {
          "name": "purchaseStatus",
          "type": "uint256"
        },
        {
          "name": "purchaseExternalId",
          "type": "bytes32"
        },
        {
          "name": "purchaseTimestamp",
          "type": "uint256"
        },
        {
          "name": "purchaseCustomer",
          "type": "address"
        },
        {
          "name": "purchaseCustomerId",
          "type": "bytes32"
        },
        {
          "name": "purchaseQuantity",
          "type": "uint256"
        },
        {
          "name": "purchaseTotal",
          "type": "uint256"
        },
        {
          "name": "purchaseEventId",
          "type": "uint256"
        }
      ],
      "payable": false,
      "stateMutability": "view",
      "type": "function"
    },
    {
      "constant": true,
      "inputs": [
        {
          "name": "_organizer",
          "type": "address"
        }
      ],
      "name": "getCountOrganizerEvents",
      "outputs": [
        {
          "name": "countEvents",
          "type": "uint256"
        }
      ],
      "payable": false,
      "stateMutability": "view",
      "type": "function"
    },
    {
      "constant": true,
      "inputs": [
        {
          "name": "_organizer",
          "type": "address"
        },
        {
          "name": "_index",
          "type": "uint256"
        }
      ],
      "name": "getEventIdByIndex",
      "outputs": [
        {
          "name": "eventId",
          "type": "uint256"
        }
      ],
      "payable": false,
      "stateMutability": "view",
      "type": "function"
    },
    {
      "constant": true,
      "inputs": [
        {
          "name": "_customer",
          "type": "address"
        }
      ],
      "name": "getCountCustomerPurchases",
      "outputs": [
        {
          "name": "countPurchases",
          "type": "uint256"
        }
      ],
      "payable": false,
      "stateMutability": "view",
      "type": "function"
    },
    {
      "constant": true,
      "inputs": [
        {
          "name": "_customer",
          "type": "address"
        },
        {
          "name": "_index",
          "type": "uint256"
        }
      ],
      "name": "getPurchaseIdByIndex",
      "outputs": [
        {
          "name": "purchaseId",
          "type": "uint256"
        }
      ],
      "payable": false,
      "stateMutability": "view",
      "type": "function"
    },
    {
      "constant": true,
      "inputs": [],
      "name": "getCountOrganizers",
      "outputs": [
        {
          "name": "countOrganizers",
          "type": "uint256"
        }
      ],
      "payable": false,
      "stateMutability": "view",
      "type": "function"
    },
    {
      "constant": true,
      "inputs": [
        {
          "name": "_index",
          "type": "uint256"
        }
      ],
      "name": "getOrganizerByIndex",
      "outputs": [
        {
          "name": "organizer",
          "type": "address"
        }
      ],
      "payable": false,
      "stateMutability": "view",
      "type": "function"
    },
    {
      "constant": true,
      "inputs": [],
      "name": "getCountCustomers",
      "outputs": [
        {
          "name": "countCustomers",
          "type": "uint256"
        }
      ],
      "payable": false,
      "stateMutability": "view",
      "type": "function"
    },
    {
      "constant": true,
      "inputs": [
        {
          "name": "_index",
          "type": "uint256"
        }
      ],
      "name": "getCustomerByIndex",
      "outputs": [
        {
          "name": "customer",
          "type": "address"
        }
      ],
      "payable": false,
      "stateMutability": "view",
      "type": "function"
    },
    {
      "constant": true,
      "inputs": [
        {
          "name": "_account",
          "type": "address"
        }
      ],
      "name": "getAccountRole",
      "outputs": [
        {
          "name": "accountIsOwner",
          "type": "bool"
        },
        {
          "name": "accountIsOrganizer",
          "type": "bool"
        },
        {
          "name": "accountIsCustomer",
          "type": "bool"
        }
      ],
      "payable": false,
      "stateMutability": "view",
      "type": "function"
    }
  ],
  "bytecode": "0x60806040523480156200001157600080fd5b5060405162004aae38038062004aae833981018060405260208110156200003757600080fd5b8101908080516401000000008111156200005057600080fd5b820160208101848111156200006457600080fd5b81516401000000008111828201871017156200007f57600080fd5b505060008054600160a060020a0319163317808255604051929550600160a060020a0316935091507f8be0079c531659141344cd1fd0a4f28419497f9722a3daafe3b4186f6b6457e0908290a360018055805115156200012b576040517f08c379a000000000000000000000000000000000000000000000000000000000815260040180806020018281038252603b81526020018062004a73603b913960400191505060405180910390fd5b80516200014090600390602084019062000152565b50506002805460ff19169055620001f7565b828054600181600116156101000203166002900490600052602060002090601f016020900481019282601f106200019557805160ff1916838001178555620001c5565b82800160010185558215620001c5579182015b82811115620001c5578251825591602001919060010190620001a8565b50620001d3929150620001d7565b5090565b620001f491905b80821115620001d35760008155600101620001de565b90565b61486c80620002076000396000f3fe6080604052600436106101ea576000357c0100000000000000000000000000000000000000000000000000000000900480638f32d59b11610114578063cae61dad116100b2578063e95a644f11610081578063e95a644f14610a8e578063ed56768e14610ab8578063f047ce1d14610ae2578063f2fde38b14610b0c576101ea565b8063cae61dad1461099d578063d444c5db146109c7578063dc8254cd14610a3a578063def3667414610a64576101ea565b8063a16d9836116100ee578063a16d98361461084c578063a4d6460714610885578063ac406e5d1461089a578063b68a2adb1461096a576101ea565b80638f32d59b146107e45780639b7aea751461080d5780639e6734a314610837576101ea565b8063493ed4ec1161018c5780637e1dcaf71161015b5780637e1dcaf71461068f57806381d66b23146106a457806383cad073146106f95780638da5cb5b146107cf576101ea565b8063493ed4ec146105305780636d0785661461060e578063706c7063146106235780637c299fda1461065c576101ea565b80632579d130116101c85780632579d1301461036d578063331adc81146103d85780633815a92a146104c05780633f69babd14610506576101ea565b8063022e9a44146102425780630fb2271d146102695780631ed7bf1c1461033b575b361561022a5760405160e560020a62461bcd02815260040180806020018281038252604281526020018061419d6042913960600191505060405180910390fd5b60055461023d903463ffffffff610b3f16565b600555005b34801561024e57600080fd5b50610257610ba5565b60408051918252519081900360200190f35b610257600480360360a081101561027f57600080fd5b8135916020810135918101906060810160408201356401000000008111156102a657600080fd5b8201836020820111156102b857600080fd5b803590602001918460018302840111640100000000831117156102da57600080fd5b919390928235926040810190602001356401000000008111156102fc57600080fd5b82018360208201111561030e57600080fd5b8035906020019184600183028401116401000000008311171561033057600080fd5b509092509050610bac565b34801561034757600080fd5b5061036b6004803603604081101561035e57600080fd5b508035906020013561117b565b005b34801561037957600080fd5b506103976004803603602081101561039057600080fd5b50356114b0565b604080519889526020890197909752878701959095526060870193909352608086019190915260a085015260c084015260e083015251908190036101000190f35b3480156103e457600080fd5b50610257600480360360c08110156103fb57600080fd5b81019060208101813564010000000081111561041657600080fd5b82018360208201111561042857600080fd5b8035906020019184600183028401116401000000008311171561044a57600080fd5b91939092600160a060020a038335169260408101906020013564010000000081111561047557600080fd5b82018360208201111561048757600080fd5b803590602001918460018302840111640100000000831117156104a957600080fd5b9193509150803590602081013590604001356115e7565b3480156104cc57600080fd5b506104ea600480360360208110156104e357600080fd5b50356119cc565b60408051600160a060020a039092168252519081900360200190f35b34801561051257600080fd5b5061036b6004803603602081101561052957600080fd5b5035611a3b565b34801561053c57600080fd5b5061055a6004803603602081101561055357600080fd5b5035611ca0565b6040518088815260200187815260200186600160a060020a0316600160a060020a0316815260200180602001858152602001848152602001838152602001828103825286818151815260200191508051906020019080838360005b838110156105cd5781810151838201526020016105b5565b50505050905090810190601f1680156105fa5780820380516001836020036101000a031916815260200191505b509850505050505050505060405180910390f35b34801561061a57600080fd5b5061036b611e08565b34801561062f57600080fd5b506102576004803603604081101561064657600080fd5b50600160a060020a038135169060200135611fa3565b34801561066857600080fd5b506102576004803603602081101561067f57600080fd5b5035600160a060020a031661208c565b34801561069b57600080fd5b5061036b6120a7565b3480156106b057600080fd5b506106d7600480360360208110156106c757600080fd5b5035600160a060020a03166121e2565b6040805193151584529115156020840152151582820152519081900360600190f35b34801561070557600080fd5b5061036b6004803603606081101561071c57600080fd5b8135919081019060408101602082013564010000000081111561073e57600080fd5b82018360208201111561075057600080fd5b8035906020019184600183028401116401000000008311171561077257600080fd5b91939092909160208101903564010000000081111561079057600080fd5b8201836020820111156107a257600080fd5b803590602001918460018302840111640100000000831117156107c457600080fd5b509092509050612229565b3480156107db57600080fd5b506104ea612711565b3480156107f057600080fd5b506107f9612720565b604080519115158252519081900360200190f35b34801561081957600080fd5b5061036b6004803603602081101561083057600080fd5b5035612731565b34801561084357600080fd5b5061025761291d565b34801561085857600080fd5b506102576004803603604081101561086f57600080fd5b50600160a060020a038135169060200135612923565b34801561089157600080fd5b5061036b6129f9565b3480156108a657600080fd5b506108af612b17565b6040518089600160a060020a0316600160a060020a0316815260200188815260200180602001878152602001868152602001858152602001848152602001838152602001828103825288818151815260200191508051906020019080838360005b83811015610928578181015183820152602001610910565b50505050905090810190601f1680156109555780820380516001836020036101000a031916815260200191505b50995050505050505050505060405180910390f35b34801561097657600080fd5b506102576004803603602081101561098d57600080fd5b5035600160a060020a0316612c06565b3480156109a957600080fd5b5061036b600480360360208110156109c057600080fd5b5035612c21565b3480156109d357600080fd5b506109f1600480360360208110156109ea57600080fd5b5035612e84565b60408051988952602089019790975287870195909552600160a060020a039093166060870152608086019190915260a085015260c084015260e083015251908190036101000190f35b348015610a4657600080fd5b5061036b60048036036020811015610a5d57600080fd5b503561306e565b348015610a7057600080fd5b5061036b60048036036020811015610a8757600080fd5b5035613281565b348015610a9a57600080fd5b5061036b60048036036020811015610ab157600080fd5b5035613496565b348015610ac457600080fd5b506104ea60048036036020811015610adb57600080fd5b503561373e565b348015610aee57600080fd5b5061036b60048036036020811015610b0557600080fd5b5035613792565b348015610b1857600080fd5b5061036b60048036036020811015610b2f57600080fd5b5035600160a060020a031661397e565b600082820183811015610b9c576040805160e560020a62461bcd02815260206004820181905260248201527f534146452d3030343a206164646974696f6e20686173206f766572666c6f776e604482015290519081900360640190fd5b90505b92915050565b600c545b90565b60018054810180825560009160025460ff166003811115610bc957fe5b14610c085760405160e560020a62461bcd028152600401808060200182810382526038815260200180613e5c6038913960400191505060405180910390fd5b6007548990811115610c52576040805160e560020a62461bcd02815260206004820152601b6024820152600080516020613e94833981519152604482015290519081900360640190fd5b600160008b8152600a602052604090205460ff166006811115610c7157fe5b14610cb05760405160e560020a62461bcd02815260040180806020018281038252604581526020018061426f6045913960600191505060405180910390fd5b610cb9336139cf565b15610cf85760405160e560020a62461bcd02815260040180806020018281038252605e81526020018061413f605e913960600191505060405180910390fd5b60008911610d3a5760405160e560020a62461bcd02815260040180806020018281038252604c815260200180613dab604c913960600191505060405180910390fd5b60008a8152600a6020526040902060080154891115610d8d5760405160e560020a62461bcd028152600401808060200182810382526069815260200180613ed66069913960800191505060405180910390fd5b861515610dce5760405160e560020a62461bcd0281526004018080602001828103825260458152602001806144586045913960600191505060405180910390fd5b60008611610e105760405160e560020a62461bcd02815260040180806020018281038252603481526020018061423b6034913960400191505060405180910390fd5b831515610e515760405160e560020a62461bcd02815260040180806020018281038252603a815260200180613c8a603a913960400191505060405180910390fd5b60008a8152600a6020526040902060050154610e74908a9063ffffffff6139d716565b3414610eb45760405160e560020a62461bcd0281526004018080602001828103825260618152602001806145226061913960800191505060405180910390fd5b610ebe6008613a37565b6000818152600d602052604090819020805460ff19168155600781018d90556005018b90555190935088908890808383808284376040805193909101839003832060008a8152600d602052919091206001810191909155600281018c9055600301805473ffffffffffffffffffffffffffffffffffffffff1916331790555088935087925090508083838082843780830192505050925050506040518091039020600d600085815260200190815260200160002060040181905550610fa2600a60008c8152602001908152602001600020600501548a6139d790919063ffffffff16565b6000848152600d60209081526040808320600601939093558c8252600a90522060070154610fd6908a63ffffffff610b3f16565b60008b8152600a60205260409020600781019190915560080154611000908a63ffffffff613a4316565b60008b8152600a602081815260408084206008810195909555878452600d8252832060060154928e905252600c909101546110409163ffffffff610b3f16565b60008b8152600a60209081526040808320600c019390935533808352600e82529282208054600181810183558285529284200187905592909152905414156110d257600c80546001810182556000919091527fdf6966c971051c3d54ec59162606531493a51404a002842f56009d7e5cf4a8c701805473ffffffffffffffffffffffffffffffffffffffff1916331790555b33600160a060020a0316600d600085815260200190815260200160002060010154847f5c523241722567573d6e7ded2618bd3165cbb3d2df36a677847e8eb5b277daed8d6040518082815260200191505060405180910390a450600154811461116f5760405160e560020a62461bcd028152600401808060200182810382526023815260200180613d446023913960400191505060405180910390fd5b50979650505050505050565b6001805481019081905560075483908111156111cf576040805160e560020a62461bcd02815260206004820152601b6024820152600080516020613e94833981519152604482015290519081900360640190fd5b6000848152600a60205260409020600201548490600160a060020a0316331461122c5760405160e560020a62461bcd028152600401808060200182810382526043815260200180613c476043913960600191505060405180910390fd5b6008548490811115611276576040805160e560020a62461bcd02815260206004820152601e6024820152600080516020614763833981519152604482015290519081900360640190fd5b600160025460ff16600381111561128957fe5b14806112a55750600360025460ff1660038111156112a357fe5b145b80156112cd575060016000868152600d602052604090205460ff1660038111156112cb57fe5b145b151561130d5760405160e560020a62461bcd0281526004018080602001828103825260438152602001806146e46043913960600191505060405180910390fd5b6000858152600d60209081526040808320805460ff1916600217815560050154898452600a928390529220015461134391610b3f565b6000878152600a6020818152604080842080840195909555898452600d80835290842060060154938b9052919052909101546113849163ffffffff613a4316565b6000878152600a60209081526040808320600d908101949094558883529290522060069081015490546113bc9163ffffffff613a4316565b60069081556000868152600d602052604080822060038101549301549051600160a060020a039093169281156108fc0292818181858888f1935050505015801561140a573d6000803e3d6000fd5b5033600160a060020a0316600d600087815260200190815260200160002060010154867f942853554fa9a0f40d702c46a28acba3af1b8e7fefa564f61747c0f10f1e4f75896040518082815260200191505060405180910390a45050600154821490506114ab5760405160e560020a62461bcd028152600401808060200182810382526023815260200180613d446023913960400191505060405180910390fd5b505050565b60008060008060008060008088600260050160000154811115151561150d576040805160e560020a62461bcd02815260206004820152601b6024820152600080516020613e94833981519152604482015290519081900360640190fd5b60008a8152600a602052604090205460ff16600681111561152a57fe5b9850600a60008b8152602001908152602001600020600701549750600a60008b8152602001908152602001600020600801549650600a60008b8152602001908152602001600020600901549550600a60008b8152602001908152602001600020600a01549450600a60008b8152602001908152602001600020600b01549350600a60008b8152602001908152602001600020600c01549250600a60008b8152602001908152602001600020600d0154915050919395975091939597565b600180548101908190556000906115fc612720565b151561163c5760405160e560020a62461bcd028152600401808060200182810382526039815260200180613df76039913960400191505060405180910390fd5b600160025460ff16600381111561164f57fe5b1461168e5760405160e560020a62461bcd028152600401808060200182810382526038815260200180613e5c6038913960400191505060405180910390fd5b6116a088600160a060020a03166139cf565b156116df5760405160e560020a62461bcd02815260040180806020018281038252605f81526020018061449d605f913960600191505060405180910390fd5b8815156117205760405160e560020a62461bcd0281526004018080602001828103825260498152602001806143096049913960600191505060405180910390fd5b8515156117615760405160e560020a62461bcd0281526004018080602001828103825260428152602001806147d56042913960600191505060405180910390fd5b6000851015801561177457506127108511155b15156117b45760405160e560020a62461bcd02815260040180806020018281038252605d81526020018061406b605d913960600191505060405180910390fd5b600083116117f65760405160e560020a62461bcd0281526004018080602001828103825260528152602001806147836052913960600191505060405180910390fd5b6118006007613a37565b6000818152600a602052604090819020805460ff19169055519092508a908a9080838380828437604080519190930181900390206000888152600a6020529290922060018101929092555060028101805473ffffffffffffffffffffffffffffffffffffffff1916600160a060020a038e161790556118889350600301915089905088613bae565b506000828152600a60209081526040808320600481018990556005810188905560068101879055600801869055600160a060020a038b16808452600b83529083208054600181810183558286529385200186905592529054141561193f57600980546001810182556000919091527f6e1540171b6c0c960b71a7020d9f60077f6af931a8bbf590da0223dacf75c7af01805473ffffffffffffffffffffffffffffffffffffffff1916600160a060020a038a161790555b6000828152600a6020526040808220600101549051339285917f3d4537acb0186e4f2439274c2b7912255b93f5ff4d88c9559ad43c1a25389b3d9190a460015481146119bf5760405160e560020a62461bcd028152600401808060200182810382526023815260200180613d446023913960400191505060405180910390fd5b5098975050505050505050565b6009546000908210611a125760405160e560020a62461bcd028152600401808060200182810382526025815260200180613d1f6025913960400191505060405180910390fd5b6009805483908110611a2057fe5b600091825260209091200154600160a060020a031692915050565b6001805481018082559060025460ff166003811115611a5657fe5b14611a955760405160e560020a62461bcd028152600401808060200182810382526038815260200180613e5c6038913960400191505060405180910390fd5b6007548290811115611adf576040805160e560020a62461bcd02815260206004820152601b6024820152600080516020613e94833981519152604482015290519081900360640190fd5b6000838152600a60205260409020600201548390600160a060020a03163314611b3c5760405160e560020a62461bcd028152600401808060200182810382526043815260200180613c476043913960600191505060405180910390fd5b6000848152600a602052604081205460ff166006811115611b5957fe5b1480611b81575060016000858152600a602052604090205460ff166006811115611b7f57fe5b145b80611ba8575060026000858152600a602052604090205460ff166006811115611ba657fe5b145b80611bcf575060036000858152600a602052604090205460ff166006811115611bcd57fe5b145b1515611c0f5760405160e560020a62461bcd02815260040180806020018281038252605b8152602001806145c6605b913960600191505060405180910390fd5b6000848152600a6020526040808220805460ff19166006178155600101549051339287917f0ee4413cdcc547b9c4f2e2798c37e1002cb9f050f5160764a786303e412f51159190a450506001548114611c9c5760405160e560020a62461bcd028152600401808060200182810382526023815260200180613d446023913960400191505060405180910390fd5b5050565b600080600060606000806000876002600501600001548111151515611cfd576040805160e560020a62461bcd02815260206004820152601b6024820152600080516020613e94833981519152604482015290519081900360640190fd5b6000898152600a602052604090205460ff166006811115611d1a57fe5b60008a8152600a60209081526040918290206001808201546002808401546003909401805487516101009582161595909502600019011691909104601f8101869004860284018601909652858352959d509b50600160a060020a039091169950929190830182828015611dce5780601f10611da357610100808354040283529160200191611dce565b820191906000526020600020905b815481529060010190602001808311611db157829003601f168201915b50505060009b8c525050600a602052604090992060048101546005820154600690920154999b989a97999798909791965090945092505050565b60018054810190819055611e1a612720565b1515611e5a5760405160e560020a62461bcd028152600401808060200182810382526039815260200180613df76039913960400191505060405180910390fd5b600360025460ff166003811115611e6d57fe5b1415611ead5760405160e560020a62461bcd02815260040180806020018281038252603c815260200180614727603c913960400191505060405180910390fd5b6002805460ff19166003179055600554600454600091611ecd9190610b3f565b90506000811115611f1a57611ee0612711565b600160a060020a03166108fc829081150290604051600060405180830381858888f19350505050158015611f18573d6000803e3d6000fd5b505b600454600554604080519283526020830191909152805133927fe035ff5b5b73d38735eb5d0e7831dc51cc7cd6f9afccf87ea67510f0aea7178f92908290030190a2506001548114611fa05760405160e560020a62461bcd028152600401808060200182810382526023815260200180613d446023913960400191505060405180910390fd5b50565b600160a060020a0382166000908152600e60205260408120541515611ffc5760405160e560020a62461bcd028152600401808060200182810382526031815260200180613f3f6031913960400191505060405180910390fd5b600160a060020a0383166000908152600e602052604090205482106120555760405160e560020a62461bcd02815260040180806020018281038252602c815260200180614396602c913960400191505060405180910390fd5b600160a060020a0383166000908152600e6020526040902080548390811061207957fe5b6000918252602090912001549392505050565b600160a060020a03166000908152600e602052604090205490565b600180548101908190556120b9612720565b15156120f95760405160e560020a62461bcd028152600401808060200182810382526039815260200180613df76039913960400191505060405180910390fd5b600060025460ff16600381111561210c57fe5b148061212757506002805460ff16600381111561212557fe5b145b15156121675760405160e560020a62461bcd0281526004018080602001828103825260488152602001806146216048913960600191505060405180910390fd5b6002805460ff1916600117905560405133907f9fea7b1cd879f0b2375fdf871618692a2df771b51d8d57baa64492e8211c97a990600090a26001548114611fa05760405160e560020a62461bcd028152600401808060200182810382526023815260200180613d446023913960400191505060405180910390fd5b60008060006121ef612711565b600160a060020a039485166000818152600b6020908152604080832054600e90925282205493909716909114969581109591119350915050565b60018054810190819055600854869081111561227d576040805160e560020a62461bcd02815260206004820152601e6024820152600080516020614763833981519152604482015290519081900360640190fd5b86600080828152600d602052604090205460ff16600381111561229c57fe5b146122db5760405160e560020a62461bcd0281526004018080602001828103825260438152602001806145836043913960600191505060405180910390fd5b6000888152600d6020526040902060070154600160025460ff16600381111561230057fe5b148061231c5750600360025460ff16600381111561231a57fe5b145b80156123b8575060016000828152600a602052604090205460ff16600681111561234257fe5b148061236a575060026000828152600a602052604090205460ff16600681111561236857fe5b145b80612391575060036000828152600a602052604090205460ff16600681111561238f57fe5b145b806123b8575060066000828152600a602052604090205460ff1660068111156123b657fe5b145b15156123f85760405160e560020a62461bcd0281526004018080602001828103825260438152602001806143c26043913960600191505060405180910390fd5b6000898152600d6020526040902060030154600160a060020a031633146124535760405160e560020a62461bcd02815260040180806020018281038252605b815260200180614010605b913960600191505060405180910390fd5b600d60008a81526020019081526020016000206004015486866040518083838082843760405192018290039091209490941493506124c9925050505760405160e560020a62461bcd02815260040180806020018281038252604c815260200180614669604c913960600191505060405180910390fd5b600d60008a815260200190815260200160002060010154888860405180838380828437604051920182900390912094909414935061253f925050505760405160e560020a62461bcd0281526004018080602001828103825260558152602001806142b46055913960600191505060405180910390fd5b6000898152600d60209081526040808320805460ff1916600117815560050154848452600a9092529091206009015461257791610b3f565b6000828152600a6020818152604080842060098101959095558d8452600d825283206005015492859052526008909101546125b79163ffffffff610b3f16565b6000828152600a6020818152604080842060088101959095558d8452600d82528320600601549285905252600c909101546125f79163ffffffff613a4316565b6000828152600a60208181526040808420600c8101959095558d8452600d8083529084206006015493869052919052909101546126399163ffffffff610b3f16565b6000828152600a60209081526040808320600d908101949094558c83529290522060069081015490546126719163ffffffff610b3f16565b6006556000898152600d60209081526040918290206001015482518481529251339391928d927f910e16369c841c62478793b597aac0e4d4feb7e2af6200c3f18fcbabf544cf90929081900390910190a45050600154821490506127095760405160e560020a62461bcd028152600401808060200182810382526023815260200180613d446023913960400191505060405180910390fd5b505050505050565b600054600160a060020a031690565b600054600160a060020a0316331490565b6001805481018082559060025460ff16600381111561274c57fe5b1461278b5760405160e560020a62461bcd028152600401808060200182810382526038815260200180613e5c6038913960400191505060405180910390fd5b60075482908111156127d5576040805160e560020a62461bcd02815260206004820152601b6024820152600080516020613e94833981519152604482015290519081900360640190fd5b6000838152600a60205260409020600201548390600160a060020a031633146128325760405160e560020a62461bcd028152600401808060200182810382526043815260200180613c476043913960600191505060405180910390fd5b60036000858152600a602052604090205460ff16600681111561285157fe5b146128905760405160e560020a62461bcd028152600401808060200182810382526044815260200180613d676044913960600191505060405180910390fd5b6000848152600a6020526040808220805460ff19166004178155600101549051339287917f35fe653fa7fdc6e866709f9650a212a9bba01a554fb3fa5bc3e32243009706b09190a450506001548114611c9c5760405160e560020a62461bcd028152600401808060200182810382526023815260200180613d446023913960400191505060405180910390fd5b60095490565b600160a060020a0382166000908152600b6020526040812054151561297c5760405160e560020a62461bcd02815260040180806020018281038252602f8152602001806146b5602f913960400191505060405180910390fd5b600160a060020a0383166000908152600b602052604090205482106129d55760405160e560020a62461bcd02815260040180806020018281038252602a815260200180614817602a913960400191505060405180910390fd5b600160a060020a0383166000908152600b6020526040902080548390811061207957fe5b60018054810190819055612a0b612720565b1515612a4b5760405160e560020a62461bcd028152600401808060200182810382526039815260200180613df76039913960400191505060405180910390fd5b600160025460ff166003811115612a5e57fe5b14612a9d5760405160e560020a62461bcd028152600401808060200182810382526038815260200180613e5c6038913960400191505060405180910390fd5b6002805460ff19168117905560405133907ff617c3d95c84024e672a8fededa543b117e158525973fce5c45bba7a0310533990600090a26001548114611fa05760405160e560020a62461bcd028152600401808060200182810382526023815260200180613d446023913960400191505060405180910390fd5b60008060606000806000806000612b2c612711565b60025490985060ff166003811115612b4057fe5b60038054604080516020601f60026000196101006001881615020190951694909404938401819004810282018101909252828152939a50830182828015612bc85780601f10612b9d57610100808354040283529160200191612bc8565b820191906000526020600020905b815481529060010190602001808311612bab57829003601f168201915b505050505095506002800154945060026003015493506002600401549250600260050160000154915060026006016000015490509091929394959697565b600160a060020a03166000908152600b602052604090205490565b6001805481018082559060025460ff166003811115612c3c57fe5b14612c7b5760405160e560020a62461bcd028152600401808060200182810382526038815260200180613e5c6038913960400191505060405180910390fd5b612c83612720565b1515612cc35760405160e560020a62461bcd028152600401808060200182810382526039815260200180613df76039913960400191505060405180910390fd5b60046000838152600a602052604090205460ff166006811115612ce257fe5b14612d215760405160e560020a62461bcd0281526004018080602001828103825260448152602001806143526044913960600191505060405180910390fd5b6000828152600a60205260408120805460ff19166005178155600c8101546004909101549091612d63612710612d5785856139d7565b9063ffffffff613a8d16565b90506000612d77848363ffffffff613a4316565b600454909150612d8d908363ffffffff610b3f16565b6004556000811115612de2576000868152600a6020526040808220600201549051600160a060020a039091169183156108fc02918491818181858888f19350505050158015612de0573d6000803e3d6000fd5b505b33600160a060020a0316600a600088815260200190815260200160002060010154877f293042c3863735e59840317b291f5e3827023e38d4cc246c3ac754a7612cabea846040518082815260200191505060405180910390a45050505060015481141515611c9c5760405160e560020a62461bcd028152600401808060200182810382526023815260200180613d446023913960400191505060405180910390fd5b600080600080600080600080886002600601600001548111151515612ee1576040805160e560020a62461bcd02815260206004820152601e6024820152600080516020614763833981519152604482015290519081900360640190fd5b612ee9612720565b80612f0d575060008a8152600d6020526040902060030154600160a060020a031633145b80612f41575060008a8152600d60209081526040808320600701548352600a909152902060020154600160a060020a031633145b1515612f815760405160e560020a62461bcd02815260040180806020018281038252605c8152602001806141df605c913960600191505060405180910390fd5b60008a8152600d602052604090205460ff166003811115612f9e57fe5b9850600d60008b8152602001908152602001600020600101549750600d60008b8152602001908152602001600020600201549650600d60008b815260200190815260200160002060030160009054906101000a9004600160a060020a03169550600d60008b8152602001908152602001600020600401549450600d60008b8152602001908152602001600020600501549350600d60008b8152602001908152602001600020600601549250600d60008b815260200190815260200160002060070154915050919395975091939597565b6001805481018082559060025460ff16600381111561308957fe5b146130c85760405160e560020a62461bcd028152600401808060200182810382526038815260200180613e5c6038913960400191505060405180910390fd5b6007548290811115613112576040805160e560020a62461bcd02815260206004820152601b6024820152600080516020613e94833981519152604482015290519081900360640190fd5b6000838152600a60205260409020600201548390600160a060020a0316331461316f5760405160e560020a62461bcd028152600401808060200182810382526043815260200180613c476043913960600191505060405180910390fd5b6000848152600a602052604081205460ff16600681111561318c57fe5b14806131b4575060026000858152600a602052604090205460ff1660068111156131b257fe5b145b15156131f45760405160e560020a62461bcd0281526004018080602001828103825260538152602001806140ec6053913960600191505060405180910390fd5b6000848152600a6020526040808220805460ff19166001908117825501549051339287917fef3055d6a78b41220970b1e9f67835db19157e9ba5b343cdac4d6a700d4167199190a450506001548114611c9c5760405160e560020a62461bcd028152600401808060200182810382526023815260200180613d446023913960400191505060405180910390fd5b6001805481018082559060025460ff16600381111561329c57fe5b146132db5760405160e560020a62461bcd028152600401808060200182810382526038815260200180613e5c6038913960400191505060405180910390fd5b6007548290811115613325576040805160e560020a62461bcd02815260206004820152601b6024820152600080516020613e94833981519152604482015290519081900360640190fd5b6000838152600a60205260409020600201548390600160a060020a031633146133825760405160e560020a62461bcd028152600401808060200182810382526043815260200180613c476043913960600191505060405180910390fd5b60016000858152600a602052604090205460ff1660068111156133a157fe5b14806133c9575060026000858152600a602052604090205460ff1660068111156133c757fe5b145b15156134095760405160e560020a62461bcd0281526004018080602001828103825260538152602001806144056053913960600191505060405180910390fd5b6000848152600a6020526040808220805460ff19166003178155600101549051339287917ffcba9908c39851e11eb6fd8533037d738ed3937eab2f290fede491031f89c6ff9190a450506001548114611c9c5760405160e560020a62461bcd028152600401808060200182810382526023815260200180613d446023913960400191505060405180910390fd5b6001805481018082559060025460ff1660038111156134b157fe5b146134f05760405160e560020a62461bcd028152600401808060200182810382526038815260200180613e5c6038913960400191505060405180910390fd5b600854829081111561353a576040805160e560020a62461bcd02815260206004820152601e6024820152600080516020614763833981519152604482015290519081900360640190fd5b82600080828152600d602052604090205460ff16600381111561355957fe5b146135985760405160e560020a62461bcd0281526004018080602001828103825260438152602001806145836043913960600191505060405180910390fd5b6000848152600d602052604090206007015460016000828152600a602052604090205460ff1660068111156135c957fe5b14806135f1575060026000828152600a602052604090205460ff1660068111156135ef57fe5b145b80613618575060036000828152600a602052604090205460ff16600681111561361657fe5b145b15156136585760405160e560020a62461bcd02815260040180806020018281038252605d815260200180613fb3605d913960600191505060405180910390fd5b6000858152600d6020526040902060030154600160a060020a031633146136b35760405160e560020a62461bcd02815260040180806020018281038252605b815260200180613cc4605b913960600191505060405180910390fd5b6000858152600d6020526040808220805460ff19166003179055513391879184917f1738f7f17fde42df745a2e846889780f4945b31b9299a404f3e64478b50b5f1f91a4505060015482149050611c9c5760405160e560020a62461bcd028152600401808060200182810382526023815260200180613d446023913960400191505060405180910390fd5b600c5460009082106137845760405160e560020a62461bcd0281526004018080602001828103825260248152602001806140c86024913960400191505060405180910390fd5b600c805483908110611a2057fe5b6001805481018082559060025460ff1660038111156137ad57fe5b146137ec5760405160e560020a62461bcd028152600401808060200182810382526038815260200180613e5c6038913960400191505060405180910390fd5b6007548290811115613836576040805160e560020a62461bcd02815260206004820152601b6024820152600080516020613e94833981519152604482015290519081900360640190fd5b6000838152600a60205260409020600201548390600160a060020a031633146138935760405160e560020a62461bcd028152600401808060200182810382526043815260200180613c476043913960600191505060405180910390fd5b60016000858152600a602052604090205460ff1660068111156138b257fe5b146138f15760405160e560020a62461bcd028152600401808060200182810382526043815260200180613f706043913960600191505060405180910390fd5b6000848152600a6020526040808220805460ff19166002178155600101549051339287917f9e05a36ee67f256d4a0b3241d37e09e6ee664c0fcc436c0edf14bb01cba7e62b9190a450506001548114611c9c5760405160e560020a62461bcd028152600401808060200182810382526023815260200180613d446023913960400191505060405180910390fd5b613986612720565b15156139c65760405160e560020a62461bcd028152600401808060200182810382526039815260200180613df76039913960400191505060405180910390fd5b611fa081613afc565b6000903b1190565b60008215156139e857506000610b9f565b8282028284828115156139f757fe5b0414610b9c5760405160e560020a62461bcd0281526004018080602001828103825260268152602001806144fc6026913960400191505060405180910390fd5b80546001019081905590565b600082821115613a875760405160e560020a62461bcd02815260040180806020018281038252602c815260200180613e30602c913960400191505060405180910390fd5b50900390565b6000811515613ae6576040805160e560020a62461bcd02815260206004820152601f60248201527f534146452d3030323a2063616e6e6f7420646976696465206279207a65726f00604482015290519081900360640190fd5b60008284811515613af357fe5b04949350505050565b600160a060020a0381161515613b465760405160e560020a62461bcd028152600401808060200182810382526022815260200180613eb46022913960400191505060405180910390fd5b60008054604051600160a060020a03808516939216917f8be0079c531659141344cd1fd0a4f28419497f9722a3daafe3b4186f6b6457e091a36000805473ffffffffffffffffffffffffffffffffffffffff1916600160a060020a0392909216919091179055565b828054600181600116156101000203166002900490600052602060002090601f016020900481019282601f10613bef5782800160ff19823516178555613c1c565b82800160010185558215613c1c579182015b82811115613c1c578235825591602001919060010190613c01565b50613c28929150613c2c565b5090565b610ba991905b80821115613c285760008155600101613c3256fe4552524f522d3030343a206d75737420626520747269676765726564206279206576656e74206f7267616e697a657220696e206f7264657220746f2070726f636565644552524f522d3032393a20637573746f6d65722049442063616e6e6f7420626520656d70747920696e206f7264657220746f2070726f636565644552524f522d3033373a20636865636b2d696e2072657175657374206d75737420626520696e697469617465642066726f6d20637573746f6d6572206f776e206163636f756e7420696e206f7264657220746f2070726f636565644552524f522d3034353a20696e76616c696420696e64657820286f7267616e697a657273295245454e5452592d3030313a20696e76616c6964207265656e7472616e742063616c6c4552524f522d3032303a206576656e74207469636b65742073616c6573206d75737420686176652066696e697368656420696e206f7264657220746f2070726f636565644552524f522d3032353a207175616e74697479206f66207469636b657473206d7573742062652067726561746572207468616e207a65726f20696e206f7264657220746f2070726f636565644f574e45522d3030313a206d75737420626520747269676765726564206279206f776e657220696e206f7264657220746f2070726f63656564534146452d3030333a2073756274726168656e642069732067726561746572207468616e206d696e75656e644552524f522d3030313a207469636b65742073746f7265206d757374206265206f70656e20696e206f7264657220746f2070726f636565644552524f522d3030323a20696e76616c6964206576656e7420494400000000004f574e45522d3030323a206e6577206f776e65722063616e6e6f74206265203078304552524f522d3032363a206e6f7420656e6f756768207469636b657473206c65667420666f7220746865207175616e74697479207265717565737465642e20706c65617365206368616e6765207175616e7469747920696e206f7264657220746f2070726f636565644552524f522d3034333a20637573746f6d657220686173206e6f7420707572636861736564207469636b657473207965744552524f522d3031383a206576656e74207469636b65742073616c6573206d7573742068617665207374617274656420696e206f7264657220746f2070726f636565644552524f522d3033363a206576656e74207469636b65742073616c65732073686f756c642068617665206265656e20737461727465642f73757370656e6465642f66696e697368656420696e206f7264657220746f2070726f636565644552524f522d3033323a2070757263686173652063616e63656c6c6174696f6e206d75737420626520696e6974696174656420627920707572636861736520637573746f6d657220696e206f7264657220746f2070726f636565644552524f522d3031353a2073746f726520696e63656e74697665206d757374206265206265747765656e20302e30302520283030302920746f203130302e303025202831303030302920696e206f7264657220746f2070726f636565644552524f522d3034363a20696e76616c696420696e6465782028637573746f6d657273294552524f522d3031373a207469636b6574206576656e74206d7573742062652063726561746564206f7220776974682073616c65732073757370656e64656420696e206f7264657220746f2070726f636565644552524f522d3032343a20637573746f6d65722061646472657373206d75737420726566657220746f20616e206163636f756e742028692e652e206e6f74206120636f6e74726163742920696e206f7264657220746f2070726f636565644552524f522d3030383a206f6e6c792066756e6473207472616e736665722028692e652e206e6f206461746129206163636570746564206f6e2066616c6c6261636b4552524f522d3033383a206d7573742062652074726967676572656420627920637573746f6d65722c206576656e74206f7267616e697a6572206f722073746f7265206f776e657220696e206f7264657220746f2070726f636565644552524f522d3032383a2070757263686173652064617465206d7573742062652070726f766964656420286e6f74207a65726f294552524f522d3032333a206576656e74207469636b65742073616c6573206861766520746f20686164207374617274656420696e206f7264657220746f2070726f636565644552524f522d3033343a206861736865642070757263686173652065787465726e616c204944206d757374206d6174636820776974682073746f726564206f6e6520696e206f7264657220746f2070726f636565644552524f522d3031333a207469636b6574206576656e742065787465726e616c204944206d757374206e6f7420626520656d70747920696e206f7264657220746f2070726f636565644552524f522d3032313a207469636b6574206576656e74206d7573742068617665206265656e20636f6d706c6574656420696e206f7264657220746f2070726f636565644552524f522d3034343a20696e76616c696420696e6465782028637573746f6d6572507572636861736573294552524f522d3033313a206576656e7420737461747573206d75737420616c6c6f772063616e63656c6c6174696f6e20696e206f7264657220746f2070726f636565644552524f522d3031393a206576656e74207469636b65742073616c6573206d75737420686176652073746172746564206f722062652073757370656e64656420696e206f7264657220746f2070726f636565644552524f522d3032373a2070757263686173652065787465726e616c204944206d757374206e6f7420626520656d70747920696e206f7264657220746f2070726f636565644552524f522d3031323a206f7267616e697a65722061646472657373206d75737420726566657220746f20616e206163636f756e742028692e652e206e6f74206120636f6e74726163742920696e206f7264657220746f2070726f63656564534146452d3030313a206d756c7469706c69636174696f6e20686173206f766572666c6f776e4552524f522d3033303a20637573746f6d65722066756e64732073656e74206f6e207472616e73616374696f6e206d75737420626520657175616c20746f20707572636861736520746f74616c20696e206f7264657220746f2070726f636565644552524f522d3030363a207469636b6574207075726368617365206861766520746f20626520636f6d706c6574656420696e206f7264657220746f2070726f636565644552524f522d3032323a206576656e74206d7573742062652063726561746564206f72206861766520697473207469636b65742073616c6573206e6f7420636f6d706c6574656420696e206f7264657220746f2070726f636565644552524f522d3030393a207469636b65742073746f7265206d7573742062652063726561746564206f722073757370656e64656420696e206f7264657220746f2070726f636565644552524f522d3033333a2068617368656420637573746f6d6572204944206d757374206d6174636820776974682073746f726564206f6e6520696e206f7264657220746f2070726f636565644552524f522d3034303a206f7267616e697a657220686173206e6f742063726561746564206576656e7473207965744552524f522d3033353a207469636b6574207075726368617365206861766520746f2062652063616e63656c6c656420696e206f7264657220746f2070726f636565644552524f522d3031303a207469636b65742073746f72652063616e6e6f7420626520636c6f73656420696e206f7264657220746f2070726f636565644552524f522d3030333a20696e76616c696420707572636861736520494400004552524f522d3031363a206e756d626572206f66207469636b65747320617661696c61626c6520666f722073616c652063616e6e6f74206265207a65726f20696e206f7264657220746f2070726f636565644552524f522d3031343a207469636b6574206576656e74206e616d65206d757374206e6f7420626520656d70747920696e206f7264657220746f2070726f636565644552524f522d3034313a20696e76616c696420696e64657820286f7267616e697a65724576656e747329a165627a7a72305820c83a166fe8bb3d38d815e9d8cb43f972c69c450431a51a293d55aaafe1d1dc9b00294552524f522d3030373a2073746f7265206e616d65206d757374206e6f7420626520656d70747920696e206f7264657220746f2070726f63656564",
  "source": "pragma solidity 0.5.3;\r\n\r\nimport \"./Ownable.sol\";\r\nimport \"./Counter.sol\";\r\nimport \"./SafeMath.sol\";\r\nimport \"./Address.sol\";\r\nimport \"./ReentrancyGuard.sol\";\r\n\r\n\r\ncontract Bileto is Ownable, ReentrancyGuard {\r\n    using SafeMath for uint;\r\n    using Counter_ for Counter_.Counter;\r\n    using Address for address;\r\n    using Address for address payable;\r\n\r\n    enum StoreStatus {\r\n        Created,   // 0\r\n        Open,      // 1\r\n        Suspended, // 2\r\n        Closed     // 3\r\n    }\r\n\r\n    enum EventStatus {\r\n        Created,        // 0\r\n        SalesStarted,   // 1\r\n        SalesSuspended, // 2\r\n        SalesFinished,  // 3\r\n        Completed,      // 4\r\n        Settled,        // 5\r\n        Cancelled       // 6\r\n    }\r\n\r\n    enum PurchaseStatus {\r\n        Completed, // 0\r\n        Cancelled, // 1\r\n        Refunded,  // 2\r\n        CheckedIn  // 3\r\n    }\r\n\r\n    struct Store {\r\n        StoreStatus status;\r\n        string name;\r\n        uint settledBalance;\r\n        uint excessBalance;\r\n        uint refundableBalance;\r\n        Counter_.Counter counterEvents;\r\n        Counter_.Counter counterPurchases;\r\n    }\r\n\r\n    struct Event {\r\n        EventStatus status;\r\n        bytes32 externalId;\r\n        address payable organizer;\r\n        string name;\r\n        uint storeIncentive;\r\n        uint ticketPrice;\r\n        uint ticketsOnSale;\r\n        uint ticketsSold;\r\n        uint ticketsLeft;\r\n        uint ticketsCancelled;\r\n        uint ticketsRefunded;\r\n        uint ticketsCheckedIn;\r\n        uint eventBalance;\r\n        uint refundableBalance;\r\n    }\r\n\r\n    struct Purchase {\r\n        PurchaseStatus status;\r\n        bytes32 externalId;\r\n        uint timestamp;\r\n        address payable customer;\r\n        bytes32 customerId;\r\n        uint quantity;\r\n        uint total;\r\n        uint eventId;\r\n    }\r\n\r\n    Store private store;\r\n\r\n    address[] private organizers;\r\n\r\n    mapping(uint => Event) private events;\r\n\r\n    mapping(address => uint[]) private organizerEvents;\r\n\r\n    address[] private customers;\r\n\r\n    mapping(uint => Purchase) private purchases;\r\n\r\n    mapping(address => uint[]) private customerPurchases;\r\n\r\n\r\n    event StoreOpen(address indexed _by);\r\n\r\n\r\n    event StoreSuspended(address indexed _by);\r\n\r\n\r\n    event StoreClosed(address indexed _by, uint _settlement, uint _excess);\r\n\r\n\r\n    event EventCreated(uint indexed _id, bytes32 indexed _extId, address indexed _by);\r\n\r\n\r\n    event EventSalesStarted(uint indexed _id, bytes32 indexed _extId, address indexed _by);\r\n\r\n\r\n    event EventSalesSuspended(uint indexed _id, bytes32 indexed _extId, address indexed _by);\r\n\r\n\r\n    event EventSalesFinished(uint indexed _id, bytes32 indexed _extId, address indexed _by);\r\n\r\n\r\n    event EventCompleted(uint indexed _id, bytes32 indexed _extId, address indexed _by);\r\n\r\n\r\n    event EventSettled(uint indexed _id, bytes32 indexed _extId, address indexed _by, uint _settlement);\r\n\r\n\r\n    event EventCancelled(uint indexed _id, bytes32 indexed _extId, address indexed _by);\r\n\r\n\r\n    event PurchaseCompleted(uint indexed _id, bytes32 indexed _extId, address indexed _by, uint _eventId);\r\n\r\n\r\n    event PurchaseCancelled(uint indexed _id, bytes32 indexed _extId, address indexed _by, uint _eventId);\r\n\r\n\r\n    event PurchaseRefunded(uint indexed _id, bytes32 indexed _extId, address indexed _by, uint _eventId);\r\n\r\n\r\n    event CustomerCheckedIn(uint indexed _eventId, uint indexed _purchaseId, address indexed _by);\r\n\r\n    modifier storeOpen() {\r\n        require(store.status == StoreStatus.Open,\r\n            \"ERROR-001: ticket store must be open in order to proceed\");\r\n        _;\r\n    }\r\n\r\n    modifier validEventId(uint _eventId) {\r\n        require(_eventId <= store.counterEvents.current,\r\n            \"ERROR-002: invalid event ID\");\r\n        _;\r\n    }\r\n\r\n    modifier validPurchaseId(uint _purchaseId) {\r\n        require(_purchaseId <= store.counterPurchases.current,\r\n            \"ERROR-003: invalid purchase ID\");\r\n        _;\r\n    }\r\n\r\n    modifier onlyOrganizer(uint _eventId) {\r\n        require(msg.sender == events[_eventId].organizer,\r\n            \"ERROR-004: must be triggered by event organizer in order to proceed\");\r\n        _;\r\n    }\r\n\r\n    modifier onlyOwnerOrOrganizer(uint _eventId) {\r\n        require(isOwner() || msg.sender == events[_eventId].organizer,\r\n            \"ERROR-005: must be triggered by event organizer or store owner in order to proceed\");\r\n        _;\r\n    }\r\n\r\n    modifier purchaseCompleted(uint _purchaseId) {\r\n        require(purchases[_purchaseId].status == PurchaseStatus.Completed,\r\n            \"ERROR-006: ticket purchase have to be completed in order to proceed\");\r\n        _;\r\n    }\r\n\r\n    /// @notice Initialize the ticket store and its respective owner.\r\n    /// @dev store owner is set by the account who created the store\r\n    constructor(string memory _name) public {\r\n        require(bytes(_name).length != 0,\r\n            \"ERROR-007: store name must not be empty in order to proceed\");\r\n        store.name = _name;\r\n        store.status = StoreStatus.Created;\r\n    }\r\n\r\n    /// @notice Fallback function.\r\n    /// @notice Funds will be locked until store is closed, when owner will be able to withdraw them.\r\n    function()\r\n        external\r\n        payable\r\n    {\r\n        require(msg.data.length == 0,\r\n            \"ERROR-008: only funds transfer (i.e. no data) accepted on fallback\");\r\n        store.excessBalance = store.excessBalance.add(msg.value);\r\n    }\r\n\r\n\r\n    function openStore()\r\n        external\r\n        nonReentrant\r\n        onlyOwner\r\n    {\r\n        require(store.status == StoreStatus.Created\r\n            || store.status == StoreStatus.Suspended,\r\n            \"ERROR-009: ticket store must be created or suspended in order to proceed\");\r\n        store.status = StoreStatus.Open;\r\n        emit StoreOpen(msg.sender);\r\n    }\r\n\r\n\r\n    function suspendStore()\r\n        external\r\n        nonReentrant\r\n        onlyOwner\r\n        storeOpen\r\n    {\r\n        store.status = StoreStatus.Suspended;\r\n        emit StoreSuspended(msg.sender);\r\n    }\r\n\r\n\r\n    function closeStore()\r\n        external\r\n        nonReentrant\r\n        onlyOwner\r\n    {\r\n        require(store.status != StoreStatus.Closed,\r\n            \"ERROR-010: ticket store cannot be closed in order to proceed\");\r\n        // require(store.refundableBalance == 0,\r\n        //     \"ERROR-011: ticket store refundable balance must be zero in order to proceed\");\r\n        store.status = StoreStatus.Closed;\r\n        uint _total = store.settledBalance.add(store.excessBalance);\r\n        if (_total > 0) {\r\n            owner().transfer(_total);\r\n        }\r\n        emit StoreClosed(msg.sender, store.settledBalance, store.excessBalance);\r\n    }\r\n\r\n    function createEvent(\r\n        string calldata _externalId,\r\n        address payable _organizer,\r\n        string calldata _name,\r\n        uint _storeIncentive,\r\n        uint _ticketPrice,\r\n        uint _ticketsOnSale\r\n    )\r\n        external\r\n        nonReentrant\r\n        onlyOwner\r\n        storeOpen\r\n        returns (uint eventId)\r\n    {\r\n        require(!_organizer.isContract(),\r\n            \"ERROR-012: organizer address must refer to an account (i.e. not a contract) in order to proceed\");\r\n        require(bytes(_externalId).length != 0,\r\n            \"ERROR-013: ticket event external ID must not be empty in order to proceed\");\r\n        require(bytes(_name).length != 0,\r\n            \"ERROR-014: ticket event name must not be empty in order to proceed\");\r\n        require(_storeIncentive >= 0\r\n            && _storeIncentive <= 10000,\r\n            \"ERROR-015: store incentive must be between 0.00% (000) to 100.00% (10000) in order to proceed\");\r\n        require(_ticketsOnSale > 0,\r\n            \"ERROR-016: number of tickets available for sale cannot be zero in order to proceed\");\r\n        eventId = store.counterEvents.next();\r\n        events[eventId].status = EventStatus.Created;\r\n        events[eventId].externalId = keccak256(bytes(_externalId));\r\n        events[eventId].organizer = _organizer;\r\n        events[eventId].name = _name;\r\n        events[eventId].storeIncentive = _storeIncentive;\r\n        events[eventId].ticketPrice = _ticketPrice;\r\n        events[eventId].ticketsOnSale = _ticketsOnSale;\r\n        events[eventId].ticketsLeft = _ticketsOnSale;\r\n        organizerEvents[_organizer].push(eventId);\r\n        if (organizerEvents[_organizer].length == 1) {\r\n            organizers.push(_organizer);\r\n        }\r\n        emit EventCreated(eventId, events[eventId].externalId, msg.sender);\r\n        return (eventId);\r\n    }\r\n\r\n    function startTicketSales(uint _eventId)\r\n        external\r\n        nonReentrant\r\n        storeOpen\r\n        validEventId(_eventId)\r\n        onlyOrganizer(_eventId)\r\n    {\r\n        require(events[_eventId].status == EventStatus.Created\r\n            || events[_eventId].status == EventStatus.SalesSuspended,\r\n            \"ERROR-017: ticket event must be created or with sales suspended in order to proceed\");\r\n        events[_eventId].status = EventStatus.SalesStarted;\r\n        emit EventSalesStarted(_eventId, events[_eventId].externalId, msg.sender);\r\n    }\r\n\r\n    function suspendTicketSales(uint _eventId)\r\n        external\r\n        nonReentrant\r\n        storeOpen\r\n        validEventId(_eventId)\r\n        onlyOrganizer(_eventId)\r\n    {\r\n        require(events[_eventId].status == EventStatus.SalesStarted,\r\n            \"ERROR-018: event ticket sales must have started in order to proceed\");\r\n        events[_eventId].status = EventStatus.SalesSuspended;\r\n        emit EventSalesSuspended(_eventId, events[_eventId].externalId, msg.sender);\r\n    }\r\n\r\n    function endTicketSales(uint _eventId)\r\n        external\r\n        nonReentrant\r\n        storeOpen\r\n        validEventId(_eventId)\r\n        onlyOrganizer(_eventId)\r\n    {\r\n        require(events[_eventId].status == EventStatus.SalesStarted\r\n            || events[_eventId].status == EventStatus.SalesSuspended,\r\n            \"ERROR-019: event ticket sales must have started or be suspended in order to proceed\");\r\n        events[_eventId].status = EventStatus.SalesFinished;\r\n        emit EventSalesFinished(_eventId, events[_eventId].externalId, msg.sender);\r\n    }\r\n\r\n\r\n    function completeEvent(uint _eventId)\r\n        external\r\n        nonReentrant\r\n        storeOpen\r\n        validEventId(_eventId)\r\n        onlyOrganizer(_eventId)\r\n    {\r\n        require(events[_eventId].status == EventStatus.SalesFinished,\r\n            \"ERROR-020: event ticket sales must have finished in order to proceed\");\r\n        events[_eventId].status = EventStatus.Completed;\r\n        emit EventCompleted(_eventId, events[_eventId].externalId, msg.sender);\r\n    }\r\n\r\n\r\n    function settleEvent(uint _eventId)\r\n        external\r\n        nonReentrant\r\n        storeOpen\r\n        onlyOwner\r\n    {\r\n        require(events[_eventId].status == EventStatus.Completed,\r\n            \"ERROR-021: ticket event must have been completed in order to proceed\");\r\n        events[_eventId].status = EventStatus.Settled;\r\n        uint _eventBalance = events[_eventId].eventBalance;\r\n        uint _storeIncentive = events[_eventId].storeIncentive;\r\n        uint _storeIncentiveBalance = _eventBalance.mul(_storeIncentive).div(10000);\r\n        uint _settlement = _eventBalance.sub(_storeIncentiveBalance);\r\n        store.settledBalance = store.settledBalance.add(_storeIncentiveBalance);\r\n        if (_settlement > 0) {\r\n            events[_eventId].organizer.transfer(_settlement);\r\n        }\r\n        emit EventSettled(_eventId, events[_eventId].externalId, msg.sender, _settlement);\r\n    }\r\n\r\n    function cancelEvent(uint _eventId)\r\n        external\r\n        nonReentrant\r\n        storeOpen\r\n        validEventId(_eventId)\r\n        onlyOrganizer(_eventId)\r\n    {\r\n        require(events[_eventId].status == EventStatus.Created\r\n            || events[_eventId].status == EventStatus.SalesStarted\r\n            || events[_eventId].status == EventStatus.SalesSuspended\r\n            || events[_eventId].status == EventStatus.SalesFinished,\r\n            \"ERROR-022: event must be created or have its ticket sales not completed in order to proceed\");\r\n        events[_eventId].status = EventStatus.Cancelled;\r\n        emit EventCancelled(_eventId, events[_eventId].externalId, msg.sender);\r\n    }\r\n\r\n    function purchaseTickets(\r\n        uint _eventId,\r\n        uint _quantity,\r\n        string calldata _externalId,\r\n        uint _timestamp,\r\n        string calldata _customerId\r\n    )\r\n        external\r\n        payable\r\n        nonReentrant\r\n        storeOpen\r\n        validEventId(_eventId)\r\n        returns (uint purchaseId)\r\n    {\r\n        require(events[_eventId].status == EventStatus.SalesStarted,\r\n            \"ERROR-023: event ticket sales have to had started in order to proceed\");\r\n        require(!msg.sender.isContract(),\r\n            \"ERROR-024: customer address must refer to an account (i.e. not a contract) in order to proceed\");\r\n        require(_quantity > 0,\r\n            \"ERROR-025: quantity of tickets must be greater than zero in order to proceed\");\r\n        require(_quantity <= events[_eventId].ticketsLeft,\r\n            \"ERROR-026: not enough tickets left for the quantity requested. please change quantity in order to proceed\");\r\n        require(bytes(_externalId).length != 0,\r\n            \"ERROR-027: purchase external ID must not be empty in order to proceed\");\r\n        require(_timestamp > 0,\r\n            \"ERROR-028: purchase date must be provided (not zero)\");\r\n        require(bytes(_customerId).length != 0,\r\n            \"ERROR-029: customer ID cannot be empty in order to proceed\");\r\n        require(msg.value == _quantity.mul(events[_eventId].ticketPrice),\r\n            \"ERROR-030: customer funds sent on transaction must be equal to purchase total in order to proceed\");\r\n        purchaseId = store.counterPurchases.next();\r\n        purchases[purchaseId].status = PurchaseStatus.Completed;\r\n        purchases[purchaseId].eventId = _eventId;\r\n        purchases[purchaseId].quantity = _quantity;\r\n        purchases[purchaseId].externalId = keccak256(bytes(_externalId));\r\n        purchases[purchaseId].timestamp = _timestamp;\r\n        purchases[purchaseId].customer = msg.sender;\r\n        purchases[purchaseId].customerId = keccak256(bytes(_customerId));\r\n        purchases[purchaseId].total = _quantity.mul(events[_eventId].ticketPrice);\r\n        events[_eventId].ticketsSold = events[_eventId].ticketsSold.add(_quantity);\r\n        events[_eventId].ticketsLeft = events[_eventId].ticketsLeft.sub(_quantity);\r\n        events[_eventId].eventBalance = events[_eventId].eventBalance.add(purchases[purchaseId].total);\r\n        customerPurchases[msg.sender].push(purchaseId);\r\n        if (customerPurchases[msg.sender].length == 1) {\r\n            customers.push(msg.sender);\r\n        }\r\n        emit PurchaseCompleted(purchaseId, purchases[purchaseId].externalId, msg.sender, _eventId);\r\n        return (purchaseId);\r\n    }\r\n\r\n    function cancelPurchase(\r\n        uint _purchaseId,\r\n        string calldata _externalId,\r\n        string calldata _customerId\r\n    )\r\n        external\r\n        nonReentrant\r\n        validPurchaseId(_purchaseId)\r\n        purchaseCompleted(_purchaseId)\r\n    {\r\n        uint _eventId = purchases[_purchaseId].eventId;\r\n        require((store.status == StoreStatus.Open || store.status == StoreStatus.Closed)\r\n            && (events[_eventId].status == EventStatus.SalesStarted\r\n                || events[_eventId].status == EventStatus.SalesSuspended\r\n                || events[_eventId].status == EventStatus.SalesFinished\r\n                || events[_eventId].status == EventStatus.Cancelled),\r\n            \"ERROR-031: event status must allow cancellation in order to proceed\");\r\n        require(msg.sender == purchases[_purchaseId].customer,\r\n            \"ERROR-032: purchase cancellation must be initiated by purchase customer in order to proceed\");\r\n        require(keccak256(bytes(_customerId)) == purchases[_purchaseId].customerId,\r\n            \"ERROR-033: hashed customer ID must match with stored one in order to proceed\");\r\n        require(keccak256(bytes(_externalId)) == purchases[_purchaseId].externalId,\r\n            \"ERROR-034: hashed purchase external ID must match with stored one in order to proceed\");\r\n        purchases[_purchaseId].status = PurchaseStatus.Cancelled;\r\n        events[_eventId].ticketsCancelled = events[_eventId].ticketsCancelled.add(purchases[_purchaseId].quantity);\r\n        events[_eventId].ticketsLeft = events[_eventId].ticketsLeft.add(purchases[_purchaseId].quantity);\r\n        events[_eventId].eventBalance = events[_eventId].eventBalance.sub(purchases[_purchaseId].total);\r\n        events[_eventId].refundableBalance = events[_eventId].refundableBalance.add(purchases[_purchaseId].total);\r\n        store.refundableBalance = store.refundableBalance.add(purchases[_purchaseId].total);\r\n        emit PurchaseCancelled(_purchaseId, purchases[_purchaseId].externalId, msg.sender, _eventId);\r\n    }\r\n\r\n    function refundPurchase(uint _eventId, uint _purchaseId)\r\n        external\r\n        nonReentrant\r\n        validEventId(_eventId)\r\n        onlyOrganizer(_eventId)\r\n        validPurchaseId(_purchaseId)\r\n    {\r\n        require((store.status == StoreStatus.Open || store.status == StoreStatus.Closed)\r\n            && purchases[_purchaseId].status == PurchaseStatus.Cancelled,\r\n            \"ERROR-035: ticket purchase have to be cancelled in order to proceed\");\r\n        purchases[_purchaseId].status = PurchaseStatus.Refunded;\r\n        events[_eventId].ticketsRefunded = events[_eventId].ticketsRefunded.add(purchases[_purchaseId].quantity);\r\n        events[_eventId].refundableBalance = events[_eventId].refundableBalance.sub(purchases[_purchaseId].total);\r\n        store.refundableBalance = store.refundableBalance.sub(purchases[_purchaseId].total);\r\n        purchases[_purchaseId].customer.transfer(purchases[_purchaseId].total);\r\n        emit PurchaseRefunded(_purchaseId, purchases[_purchaseId].externalId, msg.sender, _eventId);\r\n    }\r\n\r\n    function checkIn(uint _purchaseId)\r\n        external\r\n        nonReentrant\r\n        storeOpen\r\n        validPurchaseId(_purchaseId)\r\n        purchaseCompleted(_purchaseId)\r\n    {\r\n        uint _eventId = purchases[_purchaseId].eventId;\r\n        require(events[_eventId].status == EventStatus.SalesStarted\r\n            || events[_eventId].status == EventStatus.SalesSuspended\r\n            || events[_eventId].status == EventStatus.SalesFinished,\r\n            \"ERROR-036: event ticket sales should have been started/suspended/finished in order to proceed\");\r\n        require(msg.sender == purchases[_purchaseId].customer,\r\n            \"ERROR-037: check-in request must be initiated from customer own account in order to proceed\");\r\n        purchases[_purchaseId].status = PurchaseStatus.CheckedIn;\r\n        emit CustomerCheckedIn(_eventId, _purchaseId, msg.sender);\r\n    }\r\n\r\n    /// @notice Fetch store basic information.\r\n    /// @notice Basic info are those static attributes set when store is created.\r\n    /// @return Store attributes.\r\n    function fetchStoreInfo()\r\n        external\r\n        view\r\n        returns (\r\n            address storeOwner,\r\n            uint storeStatus,\r\n            string memory storeName,\r\n            uint storeSettledBalance,\r\n            uint storeExcessBalance,\r\n            uint storeRefundableBalance,\r\n            uint storeCounterEvents,\r\n            uint storeCounterPurchases\r\n        )\r\n    {\r\n        storeOwner = owner();\r\n        storeStatus = uint(store.status);\r\n        storeName = store.name;\r\n        storeSettledBalance = store.settledBalance;\r\n        storeExcessBalance = store.excessBalance;\r\n        storeRefundableBalance = store.refundableBalance;\r\n        storeCounterEvents = store.counterEvents.current;\r\n        storeCounterPurchases = store.counterPurchases.current;\r\n    }\r\n\r\n    /// @notice Fetch event basic information.\r\n    /// @notice Basic info are those static attributes set when event is created.\r\n    /// @param _eventId event internal ID\r\n    /// @return Event status, external ID, organizer address, event name, store incentive, ticket price and quantity of tickets for sale.\r\n    function fetchEventInfo(uint _eventId)\r\n        external\r\n        view\r\n        validEventId(_eventId)\r\n        returns (\r\n            uint eventStatus,\r\n            bytes32 eventExternalId,\r\n            address eventOrganizer,\r\n            string memory eventName,\r\n            uint eventStoreIncentive,\r\n            uint eventTicketPrice,\r\n            uint eventTicketsOnSale\r\n        )\r\n    {\r\n        eventStatus = uint(events[_eventId].status);\r\n        eventExternalId = events[_eventId].externalId;\r\n        eventOrganizer = events[_eventId].organizer;\r\n        eventName = events[_eventId].name;\r\n        eventStoreIncentive = events[_eventId].storeIncentive;\r\n        eventTicketPrice = events[_eventId].ticketPrice;\r\n        eventTicketsOnSale = events[_eventId].ticketsOnSale;\r\n    }\r\n\r\n    /// @notice Fetch event sales information.\r\n    /// @notice Sales info are those attributes which change upon each purchase/cancellation transaction.\r\n    /// @param _eventId event internal ID\r\n    /// @return Event status, tickets sold/left/cancelled/refunded/checked-in, event total/refundable balances.\r\n    function fetchEventSalesInfo(uint _eventId)\r\n        external\r\n        view\r\n        validEventId(_eventId)\r\n        returns (\r\n            uint eventStatus,\r\n            uint eventTicketsSold,\r\n            uint eventTicketsLeft,\r\n            uint eventTicketsCancelled,\r\n            uint eventTicketsRefunded,\r\n            uint eventTicketsCheckedIn,\r\n            uint eventBalance,\r\n            uint eventRefundableBalance\r\n        )\r\n    {\r\n        eventStatus = uint(events[_eventId].status);\r\n        eventTicketsSold = events[_eventId].ticketsSold;\r\n        eventTicketsLeft = events[_eventId].ticketsLeft;\r\n        eventTicketsCancelled = events[_eventId].ticketsCancelled;\r\n        eventTicketsRefunded = events[_eventId].ticketsRefunded;\r\n        eventTicketsCheckedIn = events[_eventId].ticketsCheckedIn;\r\n        eventBalance = events[_eventId].eventBalance;\r\n        eventRefundableBalance = events[_eventId].refundableBalance;\r\n    }\r\n\r\n    /// @notice Fetch purchase information.\r\n    /// @param _purchaseId purchase internal ID\r\n    /// @return Purchase status, external ID, timestamp, customer address/ID, quantity of tickets, total and event ID.\r\n    function fetchPurchaseInfo(uint _purchaseId)\r\n        external\r\n        view\r\n        validPurchaseId(_purchaseId)\r\n        returns (\r\n            uint purchaseStatus,\r\n            bytes32 purchaseExternalId,\r\n            uint purchaseTimestamp,\r\n            address purchaseCustomer,\r\n            bytes32 purchaseCustomerId,\r\n            uint purchaseQuantity,\r\n            uint purchaseTotal,\r\n            uint purchaseEventId\r\n        )\r\n    {\r\n        require(isOwner()\r\n            || msg.sender == purchases[_purchaseId].customer\r\n            || msg.sender == events[purchases[_purchaseId].eventId].organizer,\r\n            \"ERROR-038: must be triggered by customer, event organizer or store owner in order to proceed\");\r\n        purchaseStatus = uint(purchases[_purchaseId].status);\r\n        purchaseExternalId = purchases[_purchaseId].externalId;\r\n        purchaseTimestamp = purchases[_purchaseId].timestamp;\r\n        purchaseCustomer = purchases[_purchaseId].customer;\r\n        purchaseCustomerId = purchases[_purchaseId].customerId;\r\n        purchaseQuantity = purchases[_purchaseId].quantity;\r\n        purchaseTotal = purchases[_purchaseId].total;\r\n        purchaseEventId = purchases[_purchaseId].eventId;\r\n    }\r\n\r\n    /// @notice Get number of events created by an organizer.\r\n    /// @param _organizer organizer address\r\n    /// @return Count of events. Zero in case organizer hasn't yet created any events.\r\n    function getCountOrganizerEvents(address _organizer)\r\n        external\r\n        view\r\n        returns (uint countEvents)\r\n    {\r\n        // require(msg.sender == owner() || msg.sender == _organizer,\r\n        //     \"ERROR-039: not allowed to retrieve such information\");\r\n        countEvents = organizerEvents[_organizer].length;\r\n        return countEvents;\r\n    }\r\n\r\n    /// @notice Get ID of an event, according to its position on list of events created by an organizer.\r\n    /// @param _organizer organizer address\r\n    /// @param _index position in the list. Starting from zero\r\n    /// @return  Event ID\r\n    function getEventIdByIndex(address _organizer, uint _index)\r\n        external\r\n        view\r\n        returns (uint eventId)\r\n    {\r\n        require(organizerEvents[_organizer].length != 0,\r\n            \"ERROR-040: organizer has not created events yet\");\r\n        require(_index < organizerEvents[_organizer].length,\r\n            \"ERROR-041: invalid index (organizerEvents)\");\r\n        eventId = organizerEvents[_organizer][_index];\r\n        return eventId;\r\n    }\r\n\r\n    /// @notice Get number of ticket purchases performed by a customer.\r\n    /// @param _customer customer address\r\n    /// @return Count of purchases. Zero in case customer hasn't yet purchased any tickets.\r\n    function getCountCustomerPurchases(address _customer)\r\n        external\r\n        view\r\n        returns (uint countPurchases)\r\n    {\r\n        // require(msg.sender == owner() || msg.sender == _customer,\r\n        //     \"ERROR-042: not allowed to retrieve such information\");\r\n        countPurchases = customerPurchases[_customer].length;\r\n        return countPurchases;\r\n    }\r\n\r\n    /// @notice Get ID of a purchase, according to its position on list of purchases performed by a customer.\r\n    /// @param _customer customer address\r\n    /// @param _index position in the list. Starting from zero\r\n    /// @return Purchase ID\r\n    function getPurchaseIdByIndex(address _customer, uint _index)\r\n        external\r\n        view\r\n        returns (uint purchaseId)\r\n    {\r\n        require(customerPurchases[_customer].length != 0,\r\n            \"ERROR-043: customer has not purchased tickets yet\");\r\n        require(_index < customerPurchases[_customer].length,\r\n            \"ERROR-044: invalid index (customerPurchases)\");\r\n        purchaseId = customerPurchases[_customer][_index];\r\n        return purchaseId;\r\n    }\r\n\r\n    /// @notice Get number of organizers who dealt with the store.\r\n    /// @return Count of organizers. Zero in case of none yet.\r\n    function getCountOrganizers()\r\n        external\r\n        view\r\n        returns (uint countOrganizers)\r\n    {\r\n        countOrganizers = organizers.length;\r\n        return countOrganizers;\r\n    }\r\n\r\n    /// @notice Get address of an organizer, according to its position on list of organizers who delt with the store.\r\n    /// @param _index position in the list. Starting from zero\r\n    /// @return Organizer address\r\n    function getOrganizerByIndex(uint _index)\r\n        external\r\n        view\r\n        returns (address organizer)\r\n    {\r\n        require(_index < organizers.length,\r\n            \"ERROR-045: invalid index (organizers)\");\r\n        organizer = organizers[_index];\r\n        return organizer;\r\n    }\r\n\r\n    /// @notice Get number of customers who purchased tickets from the store.\r\n    /// @return Count of customers. Zero in case of none yet.\r\n    function getCountCustomers()\r\n        external\r\n        view\r\n        returns (uint countCustomers)\r\n    {\r\n        countCustomers = customers.length;\r\n        return countCustomers;\r\n    }\r\n\r\n    /// @notice Get address of an customer, according to its position on list of customers who purchased from the store.\r\n    /// @param _index position in the list. Starting from zero\r\n    /// @return Customer address\r\n    function getCustomerByIndex(uint _index)\r\n        external\r\n        view\r\n        returns (address customer)\r\n    {\r\n        require(_index < customers.length,\r\n            \"ERROR-046: invalid index (customers)\");\r\n        customer = customers[_index];\r\n        return customer;\r\n    }\r\n\r\n    /// @notice Get role of an account in relation to the store.\r\n    /// @param _account address of the account to be checked\r\n    /// @return True or False for each of the possible roles\r\n    function getAccountRole(address _account)\r\n        external\r\n        view\r\n        returns (bool accountIsOwner, bool accountIsOrganizer, bool accountIsCustomer)\r\n    {\r\n        accountIsOwner = _account == owner();\r\n        accountIsOrganizer = organizerEvents[_account].length > 0;\r\n        accountIsCustomer = customerPurchases[_account].length > 0;\r\n    }\r\n\r\n}\r\n",
  "sourcePath": "D:/Projets/group-790626/jobillet/contracts/Bileto.sol",
  "compiler": {
    "name": "solc",
    "version": "0.5.3+commit.10d17f24.Emscripten.clang"
  },
  "schemaVersion": "3.2.5",
  "updatedAt": "2020-09-17T19:47:14.466Z",
  "networkType": "ethereum",
  "devdoc": {
    "methods": {
      "constructor": {
        "details": "store owner is set by the account who created the store"
      },
      "fetchEventInfo(uint256)": {
        "return": "Event status, external ID, organizer address, event name, store incentive, ticket price and quantity of tickets for sale."
      },
      "fetchEventSalesInfo(uint256)": {
        "return": "Event status, tickets sold/left/cancelled/refunded/checked-in, event total/refundable balances."
      },
      "fetchPurchaseInfo(uint256)": {
        "return": "Purchase status, external ID, timestamp, customer address/ID, quantity of tickets, total and event ID."
      },
      "fetchStoreInfo()": {
        "return": "Store attributes."
      },
      "getAccountRole(address)": {
        "return": "True or False for each of the possible roles"
      },
      "getCountCustomerPurchases(address)": {
        "return": "Count of purchases. Zero in case customer hasn't yet purchased any tickets."
      },
      "getCountCustomers()": {
        "return": "Count of customers. Zero in case of none yet."
      },
      "getCountOrganizerEvents(address)": {
        "return": "Count of events. Zero in case organizer hasn't yet created any events."
      },
      "getCountOrganizers()": {
        "return": "Count of organizers. Zero in case of none yet."
      },
      "getCustomerByIndex(uint256)": {
        "return": "Customer address"
      },
      "getEventIdByIndex(address,uint256)": {
        "return": "Event ID"
      },
      "getOrganizerByIndex(uint256)": {
        "return": "Organizer address"
      },
      "getPurchaseIdByIndex(address,uint256)": {
        "return": "Purchase ID"
      },
      "isOwner()": {
        "return": "true if `msg.sender` is the owner of the contract.\r"
      },
      "owner()": {
        "return": "the address of the owner.\r"
      },
      "transferOwnership(address)": {
        "details": "Allows the current owner to transfer control of the contract to a newOwner.\r",
        "params": {
          "newOwner": "The address to transfer ownership to.\r"
        }
      }
    }
  },
  "userdoc": {
    "methods": {}
  }
}